S00D0000736572766F2E73726563E8
S11300000C942A000C9447000C9447000C9447006D
S11300100C9447000C9447000C9447000C94470040
S11300200C9447000C9447000C94C3030C94B6033F
S11300300C9447000C9447000C9447000C94470020
S11300400C9447000C9447000C9447000C94470010
S11300500C94470011241FBECFE5D8E0DEBFCDBF0E
S113006016E0A0E6B0E0E8E9FBE002C005900D92DE
S1130070A035B107D9F726E0A0E5B6E001C01D928E
S1130080A439B207E1F70E94FD010C94CA050C944F
S11300900000613011F4949A0DC094980BC09798A5
S11300A0882314F4969A01C09698979A880F9150D1
S11300B0B1F7089598E0F3CFCF93DF93D0EB60E0EE
S11300C08D2F0E94490060E080E00E94490060E0BA
S11300D080E10E944900C0E061E080E00E944900A4
S11300E0CF5FC038C9F7DF5FD83B49F7DF91CF91C5
S11300F008959598959A60E08EEA0E94490060E020
S113010085ED0E94490060E080E80E94490060E0BB
S113011088EA0E94490060E08FE30E94490060E0A1
S113012083ED0E94490060E080E00E94490060E0A5
S113013080E40E94490060E08DE80E94490060E08C
S113014084E10E94490060E080E20E94490060E08E
S113015080E10E94490060E081EA0E94490060E079
S113016088EC0E94490060E08AED0E94490060E04A
S113017082E10E94490060E081E80E94490060E059
S11301808FE80E94490060E089ED0E94490060E028
S113019081EF0E94490060E08BED0E94490060E01D
S11301A080E30E94490060E084EA0E94490060E024
S11301B086EA0E94490060E08FEA0E9449000E949A
S11301C05C000895AF92BF92CF92DF92EF92FF92BC
S11301D00F931F93CF93DF9320E1829FC0011124DB
S11301E09C01205A3E4F7901342F3F70A32E429533
S11301F04F706894BB24B4F8B40E0F2EF0EBDF2ECE
S1130200F02DD60E0F2EF2EBCF2EF02DC60E60E0A1
S11302108D2D0E94490060E08A2D0E94490060E013
S11302208B2D0E944900E7018701085F1F4F61E0A1
S113023089910E944900C017D107C9F788E0E80EE8
S1130240F11CD394DC10E3CFDF91CF911F910F9178
S1130250FF90EF90DF90CF90BF90AF9008956F9292
S11302607F928F929F92AF92BF92CF92DF92EF9242
S1130270FF920F931F93CF93DF938C01762E642EFE
S1130280C22F99233CF48DEF0E94E2001195019551
S1130290110903C08BEF0E94E200C80160E177E21C
S11302A00E94A205FB0180EF98ED689F4001699FC1
S11302B0900C789F900C1124080D191DC80168EE4C
S11302C073E00E94A2056B0188E19CEF689F4001E6
S11302D0699F900C789F900C1124080D191DC8017A
S11302E064E670E00E94A2057B012CE9260340012C
S11302F0279F900C1124800E911E0F2EFAE0AF2E32
S1130300B12CF02DC401B5010E94A2058B0146E079
S11303104C0F460D672D8E2F0E94E200D0E02696EA
S11303208C2F880F680E462D672D8C2D0E94E200BD
S11303306C0E462D672D8E2D0E94E2006C0E462D0C
S1130340672D802F0E94E2004C2F460D26EF2003DC
S1130350C001219F900D1124880D991DB5010E94A3
S1130360A205672D0E94E200DF91CF911F910F91AA
S1130370FF90EF90DF90CF90BF90AF909F908F90C1
S11303807F906F90089580EF8ABB1BBA8FEB87BB79
S11303908FE088BB8FEF84BB85BB87EF81BB12BA2C
S11303A0089516B884E487B980E888B983E886B9E3
S11303B0089597B18F70907F980F97B944E080E0CB
S11303C090E0369A349BFECF349A24B155B130E094
S11303D0352B820F931F4150A1F7969587959695DB
S11303E08795089580E88FBF83E083BF12BE80E7BE
S11303F08CBF89B7836089BF08950E94C3010E949E
S113040079000E94F2010E94D10100E816E00F2E4B
S1130410F2E8AF2EF6E0BF2EF02D0F2EFCE58F2E66
S1130420F6E09F2EF02D0F2EF8EC2F2E312CF02D10
S113043080E00E94D901BC0180E090E00E94890420
S11304402DEC3CEC4CE45FE30E943F056B017C0126
S1130450F80160817181882777FD8095982F0E942B
S11304608B042DEC3CEC4CE45EE30E943F059B01C5
S1130470AC01C701B6010E94F0030E945804F801C0
S11304807183608381E00E94D901BC0180E090E027
S11304900E9489042DEC3CEC4CE45FE30E943F0590
S11304A06B017C01F50160817181882777FD80955E
S11304B0982F0E948B042DEC3CEC4CE45EE30E94EC
S11304C03F059B01AC01C701B6010E94F0030E94E5
S11304D058046B017C01F50171836083F801C081CC
S11304E0D181BE016C197D09660F771F882777FDBE
S11304F08095982F0E948B042B013C0160939006F9
S1130500709391068093920690939306C601029687
S11305108C179D07BCF420E030E040E85FE3609175
S11305206C0670916D0680916E0690916F060E9424
S1130530F00360936C0670936D0680936E0690933F
S11305406F061CC0F2E0CF1AD108CC15DD05B4F457
S113055020E030E040E85FE360916C0670916D0646
S113056080916E0690916F060E94EF0360936C0673
S113057070936D0680936E0690936F06F4018081EC
S11305809181BE01681B790B882777FD8095982F90
S11305900E948B0426E636E646E050E40E943F05BE
S11305A09B01AC01609354067093550680935606E4
S11305B090935706F401D183C083C301B2010E9412
S11305C0F00320916C0630916D0640916E065091B7
S11305D06F060E94F0036B017C0120E030E0A9016A
S11305E00E94540488234CF0C0925806D0925906B5
S11305F0E0925A06F0925B060CC0F7FAF094F7F812
S1130600F094C0925806D0925906E0925A06F0929D
S11306105B06C0905806D0905906E0905A06F090B8
S11306205B0620E030E04EE753E4C701B6010E94C8
S11306303B0518166CF480E090E0AEE7B3E48093D9
S1130640580690935906A0935A06B0935B061BC0B4
S113065020E030E040E751E4C701B6010E945404B1
S113066088238CF4809150069091510601969093C2
S1130670510680935006893C910554F030925106FE
S11306802092500607C0109251061092500606C0E0
S11306900B9724F013BEDC98DD9813C0F3E0F3BF8E
S11306A0209158063091590640915A0650915B06A4
S11306B060E070E08FE793E40E94EF030E945D0422
S11306C06CBF209158063091590640915A065091BA
S11306D05B0660E070E08FE793E40E94EF030E9402
S11306E05D046CBF21E040E060E0F801808191810D
S11306F00E942F0121E042E360E0F50180819181B5
S11307000E942F016091900670919106809192064B
S1130710909193060E945804DC01CB0121E040E053
S113072064E00E942F0160916C0670916D068091C7
S11307306E0690916F060E945804DC01CB0121E003
S113074042E364E00E942F016091540670915506C3
S113075080915606909157060E945804DC01CB0103
S113076021E040E066E00E942F0162CE1F920F92CA
S11307700FB60F92112412BEDC98DD980F900FBEB5
S11307800F901F9018951F920F920FB60F9211247D
S11307902F933F938F939F932091800630918106EE
S11307A08091820690918306821793073CF4DC982B
S11307B0DD9A109253061092520608C0DC9ADD9816
S11307C085E090E090935306809352069F918F9119
S11307D03F912F910F900FBE0F901F901895505876
S11307E0BB27AA270ED00DC1FED030F003D120F0D4
S11307F031F49F3F11F41EF4F3C00EF4E095E7FBCF
S1130800E9C0E92F0FD180F3BA1762077307840791
S1130810950718F071F49EF527C10EF4E0950B2EA0
S1130820BA2FA02D0B01B90190010C01CA01A0013E
S11308301124FF27591B99F0593F50F4503E68F199
S11308401A16F040A22F232F342F4427585FF3CFDA
S1130850469537952795A795F0405395C9F77EF4AB
S11308601F16BA0B620B730B840BBAF09150A1F0F4
S1130870FF0FBB1F661F771F881FC2F70EC0BA0F7A
S1130880621F731F841F48F4879577956795B79502
S1130890F7959E3F08F0B3CF9395880F08F09927FA
S11308A0EE0F97958795089571D008F481E0089527
S11308B004D06894B111D9C00895BCD088F09F5772
S11308C090F0B92F9927B751A0F0D1F0660F771F98
S11308D0881F991F1AF0BA95C9F712C0B13081F078
S11308E0C3D0B1E00895C0C0672F782F8827B85FC0
S11308F039F0B93FCCF3869577956795B395D9F7D9
S11309003EF490958095709561957F4F8F4F9F4FE2
S11309100895E89409C097FB3EF4909580957095EE
S113092061957F4F8F4F9F4F9923A9F0F92F96E937
S1130930BB279395F695879577956795B795F111AC
S1130940F8CFFAF4BB0F11F460FF1BC06F5F7F4F49
S11309508F4F9F4F16C0882311F096E911C077235B
S113096021F09EE8872F762F05C0662371F096E864
S1130970862F70E060E02AF09A95660F771F881F33
S1130980DAF7880F9695879597F90895990F0008D7
S1130990550FAA0BE0E8FEEF16161706E807F9074D
S11309A0C0F012161306E407F50798F0621B730BE8
S11309B0840B950B39F40A2661F0232B242B252B69
S11309C021F408950A2609F4A140A6958FEF811D0C
S11309D0811D089597F99F6780E870E060E00895AD
S11309E09FEF80EC089500240A9416161706180643
S11309F00906089500240A9412161306140605061F
S1130A000895092E0394000C11F4882352F0BB0FAF
S1130A1040F4BF2B11F460FF04C06F5F7F4F8F4F12
S1130A209F4F089557FD9058440F551F59F05F3F4D
S1130A3071F04795880F97FB991F61F09F3F79F0FC
S1130A4087950895121613061406551FF2CF46957E
S1130A50F1DF08C0161617061806991FF1CF869500
S1130A607105610508940895E894BB2766277727E4
S1130A70CB0197F908958ADF08F48FEF08950BD01E
S1130A80C0CFB1DF28F0B6DF18F0952309F0A2CF6C
S1130A90A7CF1124EACFC6DFA0F3959FD1F3950F1A
S1130AA050E0551F629FF001729FBB27F00DB11DEE
S1130AB0639FAA27F00DB11DAA1F649F6627B00D7E
S1130AC0A11D661F829F2227B00DA11D621F739F67
S1130AD0B00DA11D621F839FA00D611D221F749F75
S1130AE03327A00D611D231F849F600D211D822FBC
S1130AF0762F6A2F11249F5750408AF0E1F0882303
S1130B004AF0EE0FFF1FBB1F661F771F881F91500F
S1130B105040A9F79E3F510570F05CCFA6CF5F3FD0
S1130B20ECF3983EDCF3869577956795B795F79542
S1130B30E7959F5FC1F7FE2B880F911D96958795CA
S1130B4097F9089597FB072E16F4009407D077FDC4
S1130B5009D00E94B60507FC05D03EF49095819516
S1130B609F4F0895709561957F4F0895AA1BBB1BF5
S1130B7051E107C0AA1FBB1FA617B70710F0A61B99
S1130B80B70B881F991F5A95A9F780959095BC01BA
S10B0B90CD010895F894FFCF94
S1130B980000000000000000000000000000000049
S1130BA8000000F8000000000000003330000000DE
S1130BB800100C06100C06000000000000000000E5
S1130BC840C07840C0784000043F04043F04040057
S1130BD8007088FC08300000001820FF211E000067
S1130BE8F008F000E018000000211C031E211E007C
S1130BF800F00888700000001E2123241927211002
S1130C0810160E00000000000000000000000000A4
S1130C18000000E01804020000000007182040004B
S1130C2800020418E000000000402018070000003B
S1130C38404080F0804040000202010F010202009F
S1130C48000000F0000000000101011F0101010083
S1130C58000000000000000080B0700000000000E8
S1130C680000000000000000000101010101010171
S1130C780000000000000000003030000000000008
S1130C8800000000806018040060180601000000DD
S1130C9800E010080810E000000F102020100F00DA
S1130CA8001010F8000000000020203F2020000061
S1130CB800700808088870000030282422213000B9
S1130CC800300888884830000018202020110E00C1
S1130CD80000C02010F8000000070424243F24006A
S1130CE800F80888880808000019212020110E003F
S1130CF800E0108888180000000F112020110E0051
S1130D0800380808C83808000000003F0000000048
S1130D180070880808887000001C222121221C0009
S1130D2800E010080810E0000000312222110F0032
S1130D38000000C0C00000000000003030000000C7
S1130D480000008000000000000080600000000037
S1130D580000804020100800000102040810200050
S1130D68404040404040400004040404040404009B
S1130D780008102040800000002010080402010030
S1130D88007048080808F000000000303601000030
S1130D98C030C828E810E0000718272423140B00E3
S1130DA80000C038E0000000203C2302022738205D
S1130DB808F8888888700000203F202020110E0041
S1130DC8C030080808083800071820202010080038
S1130DD808F808080810E000203F202020100F0021
S1130DE808F88888E8081000203F202023201800ED
S1130DF808F88888E8081000203F20000300000055
S1130E08C03008080838000007182020221E0200F5
S1130E1808F808000008F808203F210101213F20B4
S1130E28000808F8080800000020203F20200000DF
S1130E3800000808F8080800C08080807F000000CF
S1130E4808F888C028180800203F20012638200008
S1130E5808F8080000000000203F2020202030006F
S1130E6808F8F800F8F80800203F003F003F200089
S1130E7808F830C00008F808203F200007183F0091
S1130E88E01008080810E0000F10202020100F00C0
S1130E9808F808080808F000203F210101010000B3
S1130EA8E01008080810E0000F18242438504F00F8
S1130EB808F8888888887000203F2000030C3020B8
S1130EC800708808080838000038202121221C00F6
S1130ED8180808F8080818000000203F200000003F
S1130EE808F808000008F808001F202020201F0028
S1130EF80878880000C83808000007380E01000088
S1130F08F80800F80008F800033C0700073C030051
S1130F18081868808068180820302C03032C3020B7
S1130F280838C800C83808000000203F2000000026
S1130F3810080808C838080020382621202018007E
S1130F48000000FE020202000000007F4040400052
S1130F58000C30C000000000000000010638C0008A
S1130F6800020202FE000000004040407F00000032
S1130F780000040202020400000000000000000057
S1130F880000000000000000808080808080808055
S1130F98000202040000000000000000000000003D
S1130FA800008080808000000019242222223F2033
S1130FB808F8008080000000003F112020110E0076
S1130FC80000008080800000000E11202020110005
S1130FD8000000808088F800000E112020103F20B7
S1130FE80000808080800000001F2222222213003B
S1130FF8008080F0888888180020203F2020000086
S11310080000808080808000006B9494949360003A
S113101808F8008080800000203F210000203F2045
S113102800809898000000000020203F2020000045
S1131038000000809898000000C08080807F000035
S113104808F8000080808000203F24022D30200012
S1131058000808F8000000000020203F20200000BD
S11310688080808080808000203F20003F20003FD7
S11310788080008080800000203F210000203F20E5
S11310880000808080800000001F202020201F0096
S1131098808000808000000080FFA12020110E00C5
S11310A80000008080808000000E112020A0FF80B6
S11310B8808080008080800020203F212000010063
S11310C800008080808080000033242424241900B8
S11310D8008080E0808000000000001F20200000C5
S11310E88080000000808000001F202020103F2006
S11310F8808080000080808000010E300806010096
S113110880800080008080800F300C030C300F003A
S113111800808000808080000020312E0E31200065
S1131128808080000080808080818E701806010095
S113113800808080808080000021302C22213000B3
S113114800000000807C020200000000003F4040D4
S113115800000000FF00000000000000FF00000085
S11311680002027C800000000040403F00000000B4
S1131178000601010202040400000000000000004F
S9030000FC
